:400000000080002011000000CD150000CD15000008B5044B1A6803F53F5302331A6001F0F5FA00BFFA46004010B5054C237833B9044B13B10448AFF300800123237010BDC3
:40004000C881FF1F000000008C5A0000084B10B51BB108490848AFF300800848036803B910BD074B002BFBD0BDE81040184700BF00000000CC81FF1F8C5A0000C880FF1F36
:4000800000000000704700BF704700BF704700BF704700BF704700BF704700BF08B502F009FE01F05DFB5A2001F028FB0C2002F037F802F027F802F0A5F85A2001F01EFB7E
:4000C000062002F04DF902F03DF902F09DF95A2001F014FB032002F045FA02F035FA02F095FA5A2001F00AFB092002F041FB02F031FB01F045FD01F0B1FE01F087FF01F062
:40010000B3FF02F095FC02F0D9FC02F04BFC02F007FE02F0DBFB00200E4B187002F0E6FB01F082FD02F030FD0B4802F055FD0B4802F0B2F80A4802F0B1F90A4802F0B4FA02
:40014000094802F039FB094802F0B2FB084802F0F3FB08BDE481FF1F5911000085000000890000008D00000091000000950000009900000010B584B0022001F013FE2E4C45
:4001800073222E49204605F05DF8204601F0F8FD012001F007FE2A4B1B78013372222949204605F04FF8204601F0EAFD012001F0F9FD76222449204605F044F8204601F003
:4001C000DFFD012001F0EEFD64222049204605F039F8204601F0D4FD012001F0E3FD61221B49204605F02EF8204601F0C9FD012001F0D8FD35230293342301933323009364
:40020000322331221349204605F01CF8204601F0B7FD012001F0C6FD65220F49204605F011F8204601F0ACFD012001F0BBFD022001F0B8FD04B010BD1482FF1F905A000077
:40024000E481FF1FD45A00002C5B0000805B0000B05B0000EC5B0000445C000038B50D4D2A780D4C01320D49204604F0EBFF204601F086FD012001F095FD6A780849204653
:4002800004F0E0FF204601F07BFD012001F08AFD38BD00BFE481FF1F1482FF1F745C0000A85C000038B500242FE01C4D1C4B33F8143022461B49284604F0C4FF284601F095
:4002C0005FFD012001F06EFD174B33F8143022461649284604F0B6FF284601F051FD012001F060FD01F0EEFC70B101F01BFD022001F058FD0E4801F043FD012001F052FD05
:400300000A2001F029FB04E0013443F697239C42CBDDFFF7A3FFFFF72DFF38BD1482FF1F24F8FF1FD05C00006882FF1FEC5C0000085D0000000000002DE9F84FA24801F036
:400340001FFD012001F02EFD002423E10135284604F094FD824604F0A1F999A3D3E9002304F0F0F980468946984B1E6804F1100356F8230004F092F942464B4604F0E2F9A7
:400380008046894656F82410504604F0CBFD04F1080356F8231004F0BDFC04F07FF902F0DFFE02460B464046494604F0CBF980468946231D56F82310504604F0B3FD04F180
:4003C0000C0356F8231004F0A5FC04F067F902F0C7FE02460B464046494604F0B3F98046894604F1140356F8230004F057F942464B4603F0F5FF04F067FC754B585501372D
:4004000002E000274FF0FF3540F6A5639F429DDD00274CE001356D4B1E6804F1100356F823B056F82480284604F028FD82460146404604F077FD04F1080356F8231004F0CC
:4004400069FC04F02BF902F08BFE80468946584604F024F942464B4604F074F980468946231D56F82310504604F05CFD04F10C0356F8231004F04EFC04F010F902F070FE6D
:4004800002460B464046494604F05CF98046894604F1140356F8230004F000F942464B4603F09EFF04F010FC494B5855013740F6A5639F42AEDD00275AE00135434B1E68CF
:4004C00004F1100356F82380284604F0D7FC8246404904F01DFC01463F4804F019FC3E4904F0D4FD0146404604F01CFD834656F82410504604F016FD04F1080356F823100A
:4005000004F008FC04F0CAF802F02AFE80468946584604F0C3F842464B4604F013F980468946231D56F82310504604F0FBFC04F10C0356F8231004F0EDFB04F0AFF802F033
:400540000FFE02460B464046494604F0FBF88046894604F1140356F8230004F09FF842464B4603F03DFF04F0AFFB194B5855013740F6A5639F42A0DD15485A230370134BC6
:400580001B6804F1180142F6F23253F8211002F021F90134032C7FF734AF002303E000210B4A9954013342F6F1329342F7DD0B4801F0E6FB012001F0F5FBBDE8F88F00BF56
:4005C0001E82BD9CEC79313F245D0000CC80FF1F24F8FF1F0060EA4500606A453C5D000010B50A4B00241C705C709C70012001F0C9F8234604E0064A12680649116401334D
:40060000032BF8DDFFF798FE10BD00BF9CF7FF1FCC80FF1F0000484238B5254B5B7893B94FF4804300220121084601F07FFD214B187001F04BF9204C207001F047F9607053
:4006400001F044F9A0701C4C0123627840F6A661207801F055F90123A27840F6A661607801F04EF90523FE2240F6A661A07801F047F945F681324FF40041207801F054F921
:4006800045F6813248F6A661607801F04DF945F6813249F64C51A07801F046F9054D2178287801F0E5F80121287801F099F838BDE481FF1F00F8FF1F18F8FF1F38B5254B30
:4006C0005B7893B94FF4804301221146104601F0ABFD214B187001F0F9F8204C207001F0F5F8607001F0F2F8A0701C4C0123627840F6A661207801F003F90123A27840F665
:40070000A661607801F0FCF80523FE2240F6A661A07801F0F5F845F682320021207801F003F945F6823240F6A661607801F0FCF845F6823241F64C51A07801F0F5F8064DF0
:400740002178287801F094F80121287801F048F838BD00BFE481FF1F546D00201082FF1F38B5254B5B7893B94FF4804302220121084601F05BFE214B187001F0A7F8204CB8
:40078000207001F0A3F8607001F0A0F8A0701C4C0123627840F6A661207801F0B1F80123A27840F6A661607801F0AAF80523FE2240F6A661A07801F0A3F84FF4B742002173
:4007C000207801F0B1F84FF4B74240F6A661607801F0AAF84FF4B74241F64C51A07801F0A3F8064D2178287801F042F80121287800F0F6FF38BD00BFE481FF1F01F8FF1F83
:400800001CF8FF1F38B5254B5B7893B94FF4804303220121084601F00BFF214B187001F055F8204C207001F051F8607001F04EF8A0701C4C0123627840F6A661207801F0C9
:400840005FF80123A27840F6A661607801F058F80523FE2240F6A661A07801F051F845F683320021207801F05FF845F6833240F6A661607801F058F845F6833241F64C51BB
:40088000A07801F051F8064D2178287800F0F0FF0121287800F0A4FF38BD00BFE481FF1F6482FF1F20F8FF1F2DE9F04F85B0C54B5B78002B46D141F6FF734FF48042012136
:4008C000022001F0DFFAC04B187000F0FFFFBF4C207000F0FBFF607000F0F8FFA07000F0F5FFE07000F0F2FF207100F0EFFF607100F0ECFFA07100F0E9FFE07100F0E6FF00
:40090000207200F0E3FF607200F0E0FFA07200F0DDFFE07200F0DAFF207300F0D7FF607300F0D4FFA07300F0D1FFE07300F0CEFF207400F0CBFF607400F0C8FFA07400F00A
:40094000C5FFE074A14C0223627840F6B831207800F0D6FF0223A27840F6B831607800F0CFFF0223E27840F6B831A07800F0C8FF0223227940F6B831E07800F0C1FF02238A
:40098000627940F6B831207900F0BAFF0223A27940F6B831607900F0B3FF0223E27940F6B831A07900F0ACFF0223227A40F6B831E07900F0A5FF0223627A40F6B831207A47
:4009C00000F09EFF0223A27A40F6B831607A00F097FF0223E27A40F6B831A07A00F090FF0223227B40F6B831E07A00F089FF0223627B40F6B831207B00F082FF0223A27B4F
:400A000040F6B831607B00F07BFF0223E27B40F6B831A07B00F074FF0223227C40F6B831E07B00F06DFF0223627C40F6B831207C00F066FF0223A27C40F6B831607C00F059
:400A40005FFF0223E27C40F6B831A07C00F058FF0623FE2240F6B831E07C00F051FF5C4DADB22A4645F6A031207800F05DFF05F6B83B1FFA8BFB5A4645F6A031607800F0A6
:400A800053FF05F5BB5A0AF1100A1FFA8AFA524645F6A031A07800F047FF05F50C5909F128091FFA89F94A4645F6A031E07800F03BFF05F53B5808F120081FFA88F842461F
:400AC00045F6A031207900F02FFF05F56A571837BFB23A4645F6A031607900F025FF05F58C4350339BB201931A4645F6A031A07900F01AFF05F5A443083399B202910A463A
:400B000045F6A031E07900F00FFF05F5BB43403398B20390024645F6A031207A00F004FF05F5D2467836B6B2324645F6A031607A00F0FAFE2A4645F6A031A07A00F0F4FE43
:400B40005A4645F6A031E07A00F0EEFE524645F6A031207B00F0E8FE4A4645F6A031607B00F0E2FE424645F6A031A07B00F0DCFE3A4645F6A031E07B00F0D6FE019A45F63D
:400B8000A031207C00F0D0FE029A45F6A031607C00F0CAFE039A45F6A031A07C00F0C4FE324645F6A031E07C00F0BEFE064D2178287800F05DFE0121287800F011FE05B07E
:400BC000BDE8F08FE481FF1F03F8FF1F04F8FF1F24F8FF1F2DE9F04F85B0C54B5B78002B46D141F6FF734FF480420121022001F01DFAC04B187000F069FEBF4C207000F0C3
:400C000065FE607000F062FEA07000F05FFEE07000F05CFE207100F059FE607100F056FEA07100F053FEE07100F050FE207200F04DFE607200F04AFEA07200F047FEE072FC
:400C400000F044FE207300F041FE607300F03EFEA07300F03BFEE07300F038FE207400F035FE607400F032FEA07400F02FFEE074A14C0223627840F6B831207800F040FECB
:400C80000223A27840F6B831607800F039FE0223E27840F6B831A07800F032FE0223227940F6B831E07800F02BFE0223627940F6B831207900F024FE0223A27940F6B83188
:400CC000607900F01DFE0223E27940F6B831A07900F016FE0223227A40F6B831E07900F00FFE0223627A40F6B831207A00F008FE0223A27A40F6B831607A00F001FE022320
:400D0000E27A40F6B831A07A00F0FAFD0223227B40F6B831E07A00F0F3FD0223627B40F6B831207B00F0ECFD0223A27B40F6B831607B00F0E5FD0223E27B40F6B831A07BBD
:400D400000F0DEFD0223227C40F6B831E07B00F0D7FD0223627C40F6B831207C00F0D0FD0223A27C40F6B831607C00F0C9FD0223E27C40F6B831A07C00F0C2FD0623FE2282
:400D800040F6B831E07C00F0BBFD5C4DADB22A4645F6A231207800F0C7FD05F6B83B1FFA8BFB5A4645F6A231607800F0BDFD05F5BB5A0AF1100A1FFA8AFA524645F6A2311A
:400DC000A07800F0B1FD05F50C5909F128091FFA89F94A4645F6A231E07800F0A5FD05F53B5808F120081FFA88F8424645F6A231207900F099FD05F56A571837BFB23A4699
:400E000045F6A231607900F08FFD05F58C4350339BB201931A4645F6A231A07900F084FD05F5A443083399B202910A4645F6A231E07900F079FD05F5BB43403398B20390CB
:400E4000024645F6A231207A00F06EFD05F5D2467836B6B2324645F6A231607A00F064FD2A4645F6A231A07A00F05EFD5A4645F6A231E07A00F058FD524645F6A231207BDD
:400E800000F052FD4A4645F6A231607B00F04CFD424645F6A231A07B00F046FD3A4645F6A231E07B00F040FD019A45F6A231207C00F03AFD029A45F6A231607C00F034FD34
:400EC000039A45F6A231A07C00F02EFD324645F6A231E07C00F028FD064D2178287800F0C7FC0121287800F07BFC05B0BDE8F08FE481FF1F02F8FF1F586D00206882FF1F50
:400F000010B50446012001F019FF01F0DBF80C2001F006F901F0F6F801F0F4F9062001F01FFA01F00FFA01F0EFFA032001F01AFB01F00AFB01F0EEFB092001F019FC01F0BE
:400F400009FCFFF769FBFFF7B9FB762C0AD10D4B5B7813F0010F02D1FFF702FC06E0FFF751FC03E0FFF7FCFBFFF74CFCFFF79CFCFFF730FE002001F0E1FE024A53780133C2
:400F8000537010BDE481FF1F38B50122654B9A7000F098FE644B186090B938BD00F052FE624B1855012000F0EDFB322000F0D4FC002000F0E7FB322000F0CEFC013400E0F1
:400FC000002400F07FFE0028E8D1584B1B78742B09D1564B5B78742B05D1544B9B78742B01D1FFF7FDFA514B1878A0F13103452B00F29680DFE803F0676F777F87949494A5
:40100000949494949494949494949494949494949494949494949494949494949494949494949494949494945294948F929494949494949494943094942A2394942DFFF7D1
:401040005FFFFFF72FF9FFF709F938BDFFF758FF38BDFFF755FF38BD012000F093FB002414E0334D35F81400000A00F07DFE15F8140000F079FE2F4D35F81400000A00F05A
:4010800073FE15F8140000F06FFE013443F697239C42E6DD002000F075FB38BD214A13780133DBB21370042B02D900221D4B1A701C4B187801F01AFC1C4B1878FFF720FFA1
:4010C000FFF7CCF838BD0020164B187001F00EFCFFF7C4F838BD0120124B187001F006FCFFF7BCF838BD02200E4B187001F0FEFBFFF7B4F838BD03200A4B187001F0F6FB98
:40110000FFF7ACF838BD0420064B187001F0EEFBFFF7A4F838BDFFF7C5F838BD00F014FC38BD00BFE481FF1F98F7FF1F9CF7FF1F24F8FF1F6882FF1F08B562B6FEF7AEFFCC
:401140004FF400431B780BB9FFF7F6F8FFF712F8FFF71AFFFCE700BF08B50A4B9B78012B0FD10022074B9A7000F018FBC043C0B200F008FB7220FFF7C3FE4AF6C87000F032
:4011800001FC08BDE481FF1FFEE700BFF0B40022174611E050F82760F3B226F0FF0608E001EB420511F812406D78A5550132013BDBB2002BF4D10137232FEBD9F0BC7047B1
:4011C00008B50A46002104F034F808BDF8B5364B1B78DBB2354E3478E4B2354F3D78EDB203F00701334A11701B090132137044F00303337045F003033B70C0222E4B1A7076
:401200004AF208121F331A80412211331A7080232A4A1370083213700822294B1A7002210633197010200833187002331A704FF0040E063383F800E05C3319704FF0010CDC
:40124000083383F800C0073318702023DFF884C08CF800300CF12C0C8CF80000194803704FF0280C393080F800C01C3080F800E0033003700530017013490B7040F2091170
:40128000124B19804FF482710233198061211433197002331A700A2000F074FB3D70347044220B4B1A70F8BDCF010049F8460040F94600406E5800400D51004001590040FA
:4012C000125A0040CB5A00402B5B0040425B0040765800409C5A004008B503F09FFF08BD38B54D223C4B1A80182202331A7004223A493B48FFF7F0FF06223A4B1A7045F2EE
:401300000E52EE3B1A80023B05221A701B7843F2C82404E04FF4F07001F016FD013C24B1314B1B7813F0800FF4D114B90120FFF72BFF4FF48C722D4B1A8001224FF04023BF
:401340001A7042F2512203F508731A80002419250CE0274B1B7803F0010343EA440404F003044FF4F07001F0EFFC013D0DB1032CEFD115B90320FFF707FF1E4A4FF4807380
:40138000138052211C4B19701C4B1B78DBB21C490B70072313700023A1F29B610B704820023108701370053213700222154B1A7004220A331A70144A137843F00103137008
:4013C000013A137843F001031370013A137843F08003137038BD00BF804000406C070048004100400043004010420040224200402542004004400040004200400F010049BF
:40140000A146004001400040A2430040042807D8044B53F820201844017D13780B431370704700BF505D0000042808D8044B53F820201844017D137823EA0103137070470B
:40144000505D000010B572B6404A137843F00403137000240BE03E4863001A19510001440A46098CD069FFF7ABFE0134E4B2062CF1D938494FF09040FFF788FE40F2031268
:40148000354B1A8004213548FFF79AFE042234493448FFF721FF042233493448FFF71CFF042233493348FFF717FF042232493348FFF712FF042232493248FFF70DFF324A99
:4014C000137843F0020313701032137843F0020313702E4C237843F040032370A2F58632513A137843F010031370082228492948FFF7F2FE0A2228492848FFF7EDFE0822C8
:4015000027492848FFF7E8FE082227492748FFF7E3FE0A2226492748FFF7DEFE082226492648FFF7D9FE264A137843F0080313706122244B1A70FFF7D3FEFFF747FE0E22F5
:4015400021462148FFF7C8FE10BD00BFE8460040505D0000900000484A580040007600407007004808760040740700481076004078070048187600407C070048207600408C
:40158000800700482876004003500140A043004034070048025100403C070048C051004048070048F2510040500700481251004058070048205100406407004832510040AB
:4015C0002243004000480040B043004008B503F0F9FD03680C2B00D1FEE7FEE708B5094B1A681044084BC31A802B02DC054B186005E003F0E7FD0C2303604FF0FF3210462C
:4016000008BD00BF4081FF1FF06D002008B5104E104D16E029686B68AC68002204E051F8040B43F8040B0432A242F8D1E868002203E0002143F8041B04328242F9D1103580
:40164000013E002EE6D103F0C3FDFFF775FDFEE701000000CC5F000008B5114A114B1A60114A136843F40073136000230AE0032B03D80E4A52F8231000E00D490D4A42F887
:40168000231001332F2BF2D90B4B1A780B4B1A70084A0B4B1A60FFF7D5FE00F087F808BD0004FA050CED00E014ED00E000000000CD1500000080FF1FBC760040C080FF1FAA
:4016C00008ED00E0054A137843F0020313701032137843F002031370704700BFA8430040054B1A7802F0FD021A701A7800F0020010431870704700BF24580040014B187095
:40170000704700BF815B0040094B1B7803F00C035B08084A127812F0040F00D0013303F1924393F83031DBB2034A1370704700BF24580040255800400946004008B5142253
:40174000064B1A70013300221A701A78D2B21A700220FFF7C5FFFFF7D7FF08BD2458004008B5074B1B7823B9FFF7E8FF0122044B1A70FFF7A7FF0020FFF7C0FF08BD00BF99
:40178000E881FF1F044A137803F0FD03400000F0020018431070704720510040024B1878C0F34000704700BF215100400B4A7F2313708021517007E0DA0002F1804202F520
:4017C000F042013BDBB21370002BF5D1DB0003F1804303F5F04300221A7070474481FF1F172815D831B103010A495A5C42F020025A5405E0030107495A5C02F0DF025A54EA
:401800000001044A835C43F00103835400207047012070471070004017280BD80001064A835C03F0F103490001F00E011943815400207047012070471070004041F6FF7332
:40184000994201D14FF4005141F6FF739A4201D14FF40052172808D8C00000F1804000F5EC408180C280002070470120704700BF172805D8034B03EB0010417200207047E7
:40188000012070471070004017281BD810B4C00000F1804404F5EC44D201D2B201F07F01114321709DF804201201D2B203F00F03134363709DF8083003F00F03A3700020CC
:4018C000E07001E00120704710BC704710B501F043FA0A4B5B78182B0BD9084A1478013B5370E30003F1804303F5F0431B78137000E0FF2401F034FA204610BD4481FF1F2A
:4019000010F0800F0CD111F4704F0BD1C00000F1804000F5F04001808270C37000207047012070470120704710F0800F08D1C00000F1804000F5F0408180C28000207047C0
:401940000120704701BE7047024A137843F0010313707047F646004010B5044605E0084B186801F0F1F9A4F50044B4F5004FF6D8034B586800FB04F001F0E6F910BD00BFB7
:401980004C81FF1F08B5034B1B7A00FB03F001F0DBF908BD4C81FF1F08B501F0DDF900BF00BF00BF00BF00BF00BF00BF00BF00BF00BF00BF00BF00BF00BF00BF00BF064A75
:4019C00013889BB243F0040313801388BFF36F8F01F0C6F908BD00BF0048004070B504460E46074B1D681F2802D90020FFF7AAFF04F01F04103455F8240045F8246070BDF6
:401A000008ED00E038B504460D46072902D90020FFF798FF1F2C02D90020FFF793FF04F01F0000F1604000F564406D01EDB2057038BD00BF08B50A280FD00C2802D008284A
:401A400006D102E04FF4805209E04FF4807206E00020FFF777FF002201E04FF480620021084B198042F2107303FB02F313F5806301D503F2FF73DB12034A13600022034BE4
:401A80001A8008BD6C6D0020706D00206E6D002010B501F061F90446194A137843F0010313701032137843F00103137002F5AA520832137843F0030313700422114B1A70CD
:401AC000013B1A7802F0BF021A701A7842F003021A700E22053B1A700222A3F597530C3B1A70094A137843F0080313700A20FFF749FF0122054B1A60204601F031F910BDD5
:401B0000AB43004006590040275B004080E200E010B504460A280DD00C2802D0082804D101E0C42207E0442205E00020FFF70AFFC42200E08422034B1A702046FFF77AFF7A
:401B400010BD00BF0259004008B507210020FFF759FF08490020FFF741FF074A137843F0060313700C20FFF7D3FF0022034B1A8008BD00BF9D1B000001590040746D0020D4
:401B800008B5054B1B7823B9FFF7DEFF0122024B1A70FFF77DFF08BDE981FF1F704700BF08B50D490220FFF719FF07210220FFF729FF0023094A13707221094A117020215B
:401BC0000132117006215F3A1170472110321170B23A137008BD00BFC51D0000EA81FF1F8565004010B501F0B7F804460B4A137843F0200313700132137843F0100313704E
:401C00000422074B1A60074A137843F01003137000F02AF9204601F0A3F810BD9565004000E100E09564004008B5054B5B7823B9FFF7B6FF0122024B5A70FFF7D3FF08BDD9
:401C4000EA81FF1F0422194B1A60194A9378DBB2D178C9B2127912F0FF0F01D18B4211D0144AD05CC0B20133DBB2632B00D900230F4A9370137913F0FF0F13D000220C4B61
:401C80001A710FE00C4B1B78DBB213F0200F06D00A4A1078C0B213F01E0F02D102E0002000E000200422064B1A60704780E100E0EA81FF1F786D002066650040466500406B
:401CC00000E100E00422144B1A60144B9A78D2B2DB78DBB29A4206D1104B1B7913F0FF0F15D0642014E00D4B9A78D2B2DB78DBB29A4205D2094AD3789078181AC0B207E08D
:401D0000064AD3789078181A6430C0B200E000200422034B1A60704780E100E0EA81FF1F00E100E008B501F017F80B4B1A7842F001021A701A7802F0FE021A7001F010F82D
:401D40000421064B1960064B00229A70DA701A715A71044B196008BD9665004080E100E0EA81FF1F00E100E0034B1B7813F0040FFAD1024B187070476564004047640040C2
:401D800038B5074B5B782BB938BDFFF7EDFF0134A4B201E005460024285D0028F5D138BDEA81FF1F08B5064B5B783BB1FFF7DCFF0D20FFF7D9FF0A20FFF7D6FF08BD00BF78
:401DC000EA81FF1F1D4B1B78DBB213F01E0F05D01B4803F01E0201780A43027003F0200303F0FF0233B3174B1978C9B2164B1B78DBB21648C154164B1B7813F0FF0F02D0F6
:401E00000121144B197010490B780133DBB20B700B78DBB2632B02D900210B4B19700A4B1978C9B20C4B1B78DBB2994202D10121074B1970002AC5D1704700BF6665004043
:401E4000EA81FF1F46650040ED81FF1F786D0020EE81FF1FEF81FF1FEC81FF1F0122014B1A60704780E100E0054A137843F0010313701032137843F001031370704700BF45
:401E8000A2430040F0B583B016461F460B4D00242C700194009423460A4601462046FFF7F3FC3A4631462878FFF7C8FC02212878FFF7B2FC287803B0F0BD00BF5C81FF1F66
:401EC00008B50A280FD00C2802D0082806D102E04FF4805209E04FF4807206E00020FFF731FD002201E04FF480620021084B198042F2107303FB02F313F5806301D503F233
:401F0000FF73DB12034A13600022034B1A8008BDE46D0020DC6D0020E06D002038B500F01BFF0446194A137843F0020313701032137843F00203137002F5AA52103213783A
:401F400043F0030313700422114B1A70013B1A7802F0BF021A701A7842F003021A700E22053B1A700225A3F59753123B1D70094A137843F0080313700A20FFF703FD064BAE
:401F80001D60204600F0ECFE38BD00BFAB4300400E5900402F5B004080E200E010B504460A280DD00C2802D0082804D101E0C42207E0442205E00020FFF7C4FCC42200E011
:401FC0008422034B1A702046FFF77AFF10BD00BF0A59004008B507210120FFF713FD08490120FFF7FBFC074A137843F0060313700C20FFF7D3FF0022034B1A8008BD00BFD7
:402000002920000009590040E26D002008B5054B1B7823B9FFF7DEFF0122024B1A70FFF77DFF08BDF181FF1F704700BFF0B583B016461F460B4C01252570002301930093CB
:402040002B460A4601462846FFF71EFC3A4631462078FFF7F3FB02212078FFF7DDFB207803B0F0BD5D81FF1F0222014B1A60704780E100E008B500F06FFE044A137843F0E2
:402080001003137000F06CFE08BD00BF9664004008B5044A137843F001031370FFF7EAFF08BD00BF7664004008B500F055FE044A137803F0EF03137000F052FE08BD00BFA0
:4020C0009664004008B5044A137803F0FE031370FFF7EAFF08BD00BF76640040054B1A7802F0F8021A701A7800F0070010431870704700BF8664004008B50020FFF7EEFF00
:4021000008BD00BF08B5054B1B7823B9FFF7F4FF0122024B1A70FFF7BBFF08BDF281FF1F014B1870704700BF06640040F0B583B016461F460B4C02252570002301930093CC
:402140002B460A4601462846FFF79EFB3A4631462078FFF773FB29462078FFF75DFB207803B0F0BD5E81FF1F054A137843F0040313701032137843F004031370704700BF86
:40218000A8430040054B1A7802F0FD021A701A7800F0020010431870704700BF28580040014B1870704700BF825B0040094B1B7803F00C035B08084A127812F0040F00D08E
:4021C000013303F1924393F82831DBB2034A1370704700BF28580040295800400A46004008B51422064B1A70013300221A701A78D2B21A700220FFF7C5FFFFF7D7FF08BD5F
:402200002858004008B5074B1B7823B9FFF7E8FF0122044B1A70FFF7A7FF0020FFF7C0FF08BD00BFF381FF1FF0B583B016461F460B4C032525700023019300932B460A4648
:4022400001462846FFF720FB3A4631462078FFF7F5FA02212078FFF7DFFA207803B0F0BD5F81FF1F014B1B689865704708ED00E04001C0B2014B1870704700BF06E400E085
:402280004022014B1A60704700E100E04022014B1A60704780E100E010B50446FFF7F6FF2046FFF7DFFF0020FFF7E2FFFFF7E8FF10BD00BF08B500F04FFD044A137843F0C5
:4022C0001003137000F04CFD08BD00BF9364004008B5044A137843F001031370FFF7EAFF08BD00BF7364004008B500F035FD044A137803F0EF03137000F032FD08BD00BFC7
:402300009364004008B5044A137803F0FE031370FFF7EAFF08BD00BF73640040054B1A7802F0F8021A701A7800F0070010431870704700BF8364004008B50020FFF7EEFFC6
:4023400008BD00BF08B5054B1B7823B9FFF7F4FF0122024B1A70FFF7BBFF08BDF481FF1F014B1870704700BF04640040054A137843F0010313701032137843F00103137065
:40238000704700BFA8430040054B1A7802F0FD021A701A7800F0020010431870704700BF20580040014B1870704700BF805B0040094B1B7803F00C035B08084A127812F003
:4023C000040F00D0013303F1924393F82031DBB2034A1370704700BF20580040215800400846004008B51422064B1A70013300221A701A78D2B21A700220FFF7C5FFFFF72F
:40240000D7FF08BD2058004008B5074B1B7823B9FFF7E8FF0122044B1A70FFF7A7FF0020FFF7C0FF08BD00BFF581FF1FF0B583B016461F460B4C0425257000230193009371
:402440002B460A4601462846FFF71EFA3A4631462078FFF7F3F902212078FFF7DDF9207803B0F0BD6081FF1F014B1B68D865704708ED00E04001C0B2014B1870704700BF54
:4024800007E400E08022014B1A60704700E100E08022014B1A60704780E100E010B50446FFF7F6FF2046FFF7DFFF0120FFF7E2FFFFF7E8FF10BD00BF08B500F04DFC044A38
:4024C000137843F01003137000F04AFC08BD00BF9264004008B5044A137843F001031370FFF7EAFF08BD00BF7464004008B500F033FC044A137803F0EF03137000F030FC94
:4025000008BD00BF9264004008B5044A137803F0FE031370FFF7EAFF08BD00BF74640040054B1A7802F0F8021A701A7800F0070010431870704700BF8264004008B5002024
:40254000FFF7EEFF08BD00BF08B5054B1B7823B9FFF7F4FF0122024B1A70FFF7BBFF08BDF681FF1F014B1870704700BF05640040054A137843F0080313701032137843F0FD
:4025800008031370704700BFA8430040054B1A7802F0FD021A701A7800F0020010431870704700BF2C580040014B1870704700BF835B0040094B1B7803F00C035B08084AF0
:4025C000127812F0040F00D0013303F1924393F83831DBB2034A1370704700BF2C5800402D5800400B46004008B51422064B1A70013300221A701A78D2B21A700220FFF728
:40260000C5FFFFF7D7FF08BD2C58004008B5074B1B7823B9FFF7E8FF0122044B1A70FFF7A7FF0020FFF7C0FF08BD00BFF781FF1FF0B583B016461F460B4C052525700023CD
:40264000019300932B460A4601462846FFF71CF93A4631462078FFF7F1F802212078FFF7DBF8207803B0F0BD6181FF1F014B1B681866704708ED00E04001C0B2014B187068
:40268000704700BF08E400E04FF48072014B1A60704700BF00E100E04FF48072014B1A60704700BF80E100E010B50446FFF7F4FF2046FFF7DBFF0220FFF7DEFFFFF7E4FFF8
:4026C00010BD00BF08B500F047FB044A137843F01003137000F044FB08BD00BF9465004008B5044A137843F001031370FFF7EAFF08BD00BF7465004008B500F02DFB044AE2
:40270000137803F0EF03137000F02AFB08BD00BF9465004008B5044A137803F0FE031370FFF7EAFF08BD00BF74650040054B1A7802F0F8021A701A7800F00700104318708F
:40274000704700BF8465004008B50020FFF7EEFF08BD00BF08B5054B1B7823B9FFF7F4FF0122024B1A70FFF7BBFF08BDF881FF1F014B1870704700BF04650040014B1B6849
:402780005866704708ED00E04001C0B2014B1870704700BF09E400E04FF40072014B1A60704700BF00E100E04FF40072014B1A60704700BF80E100E010B50446FFF7F4FF29
:4027C0002046FFF7DBFF0320FFF7DEFFFFF7E4FF10BD00BF2DE9F04FADF5097D8B18B3F5802F3ED80E461746804600F013FB684600F01AFB4FEA164AC6F3072909EB0A24EF
:4028000024024FF0000B5D4623E0B44207D3BD4205D218F8051048AAD154013502E0217848AAD1540134013300E00023FF2BECD948AA1FFA89F15FFA8AF000F081FB8346F0
:4028400009F10109B9F1FF0F03D90AF1010A4FF00009BD4202D2BBF1000FE6D0FFF79CF801E04FF0010BBBF1010F01D94FF0FF3B58460DF5097DBDE8F08F00BF014B1B6891
:402880001865704708ED00E04001C0B2014B1870704700BF04E400E01022014B1A60704700E100E01022014B1A60704780E100E010B50446FFF7F6FF2046FFF7DFFF052091
:4028C000FFF7E2FFFFF7E8FF10BD00BF10B5002404E02046FEF7A8FD0134E4B2042CF8D9FF22014B1A7010BD6281FF1F10B50446FFF7ECFF2046FEF789FD014B1C7010BDC4
:402900006281FF1F014B1B685865704708ED00E04001C0B2014B1870704700BF05E400E02022014B1A60704700E100E02022014B1A60704780E100E010B50446FFF7F6FF3E
:402940002046FFF7DFFF0420FFF7E2FFFFF7E8FF10BD00BF084A137843F060031370A2F5A652133A137843F0040313701032137843F004031370704777580040054B1A786D
:4029800002F0FC021A701A7800F0030010431870704700BF5C58004008B50320FFF7EEFF08BD00BF08B5054B1B7823B90122034B1A70FFF7F1FFFFF7CDFF08BDF981FF1F10
:4029C000084A137843F0040313701032137843F00403137002F5A5521E32137843F0800313707047A9430040044A137803F0FC0300F0030018431070704700BF095800401E
:402A000008B50E22084B1A70182201331A70812201331A70054A137843F0080313700320FFF7E2FF08BD00BF085800402B5A004008B5054B1B7823B9FFF7E2FF0122024B32
:402A40001A70FFF7BDFF08BDFA81FF1F084A137843F0020313701032137843F00203137002F5A5521E32137843F0800313707047A9430040044A137803F0FC0300F00300F9
:402A800018431070704700BF0558004008B50E22084B1A70182201331A70812201331A70054A137843F0080313700320FFF7E2FF08BD00BF045800401B5A004008B5054B8E
:402AC0001B7823B9FFF7E2FF0122024B1A70FFF7BDFF08BDFB81FF1F054A137843F0020313701032137843F002031370704700BFA74300400F490B7803F0FC0200F0030306
:402B000013430B7001280AD10B4B1B78DBB20B4A13700B4B1B78DBB2013213707047094B1B78DBB2054A1370074B1B78DBB20132137070474158004011010049324600407E
:402B400015010049AF010049B701004908B50020FFF7D0FF0B4B1A7842F020021A701A7802F0FB021A701A7842F008021A7003F28E231A7802F0E7021A701A7842F00802C6
:402B80001A7008BD4158004008B5054B1B7823B9FFF7DCFF0122024B1A70FFF79DFF08BDFC81FF1F014B1B68D864704708ED00E04001C0B2014B1870704700BF03E400E059
:402BC0000822014B1A60704700E100E00822014B1A60704780E100E010B50446FFF7F6FF2046FFF7DFFF0720FFF7E2FFFFF7E8FF10BD00BF084A137843F001031370103211
:402C0000137843F00103137002F64D32137843F001031370704700BFA3430040014B1880704700BF044F0040014B1880704700BF064F0040014B1870704700BF034F00403F
:402C400008B5194A137843F0020313700232137803F08F0343F010031370144B1A7802F0CF021A701A7842F030021A701A7802F0F0021A701A7842F00F021A704720FFF767
:402C8000CDFF2420FFF7D0FF0020FFF7D3FF084A137843F00103137002F65E32137843F00103137008BD00BF004F00400B4F0040A343004008B5054B1B7823B9FFF7C0FFEF
:402CC0000122024B1A70FFF795FF08BDFD81FF1F084A137843F060031370A2F5A652133A137843F0080313701032137843F008031370704777580040054B1A7802F0FC02AB
:402D00001A701A7800F0030010431870704700BF5E58004008B50320FFF7EEFF08BD00BF08B5054B1B7823B90122034B1A70FFF7F1FFFFF7CDFF08BDFE81FF1F014B1870A1
:402D4000704700BF776400400230800803D000BF01380046FCD17047EFF3108072B6704780F31088704700BF10B500F0F3F800F0A1F9D0B900F0E0F90446072812D102E0E7
:402D80000120FEF7FFFD0A4B1B7813F0020FF7D0074B1B7813F0020F04D0054B1B789B0800D1002400F0ACF900E00424204610BD2247004010B500F0CDF800F07BF910BBD4
:402DC000012000F059F9072818D102210F4800F0D3F802280AD102E00120FEF7D3FD0C4B1B7813F0020FF7D0002409E0084B1B7813F0020FE9D04FF0FF3401E04FF0FF340C
:402E000000F07EF900E00424204610BDE86D00202247004008B5FFF7A7FF034610B9FFF7C9FF0346184608BD10B5044600F092F834B100F03FF928B900F062F9002010BD8E
:402E4000012010BD042010BD2DE9F041441FE4B23A2C01D9002500E0012510F0800F00D00125412800D901253F2803D8B1F5807F06D808E0802900D90125102B02D102E096
:402E8000012500E0012502B90125002D50D1984616460F46044600F00DF9002847D1434632463946204600F081F8064607283AD102E00120FEF766FD1F4B1B7813F0020F67
:402EC000F7D01D4B1B7813F0020F06D01A4B1B789B0805D04FF0FF3603E04FF0FF3600E02E4606BB154A537812783946204600F09DF8072804D0064615E00120FEF742FD1F
:402F00000D4B1B7813F0020FF7D00B4B1B7813F0020F06D0084B1B789B0804D04FF0FF3601E04FF0FF3600F0EBF8354600E004252846BDE8F08100BF22470040E86D00201A
:402F400008B53F2801D9102301E04FF48073FFF77BFF08BD08B5FFF7FFFE064A137843F0080313701032137843F008031370FFF7F7FE08BDA043004070B506460D4600243F
:402F80000CE00120FEF7FEFC064B1B7813F0010FF7D0054B1B7833550134E4B2AC42F3D3204670BD224700402047004070B41D4C247814F0020F2CD01B4CB6252570D5257F
:402FC0002570022525700234247814F0020F22D1154C2070002404E0165D134D2E700134A4B29C42F8D3B3F5807F16D13F2816D800F5103001EB00214801002305E01A5C1C
:40300000D2B209490A7001339BB21F2BF7D9072006E0042004E0092002E0072000E0072070BC7047224700402047004030B4104C247814F0020F15D00E4CB6252570D82587
:403040002570052525700234247814F0020F0BD1084C2070080A2070C9B2217022702370072002E0042000E0092030BC704700BF22470040204700400C4B1B7813F0020F9C
:403080000FD00B4BB6221A70E1221A700E221A7002331B7813F0020F05D1054B187007207047042070470920704700BF224700402047004010B5FFF74FFE0F4B1B78A3B9AF
:4030C00001220D4B1A700D4B1B6813F0010F0ED00A4A136823F00103136000BF00BF00BF0122054B5A60002402E0042400E00024FFF736FE204610BD0082FF1F04000840C1
:4031000008B5FFF729FE0A4B00221A705B68012B0AD1084A136843F00103136000BF00BF00BF0022024B5A60FFF71AFE08BD00BF0082FF1F04000840074B1B7813F0020F96
:4031400008D0064BB6221A70E0221A700D221A700720704704207047224700402047004030B5214A21F00043934287B01BDD1F4A934205DD02460B4601F030F907B030BD57
:4031800002AA00F035F800F0030001281ED0022811D0DDE9042300B3DDE9020100F040FA01F10041EAE7002300930022002300F053FF07B030BD01230093DDE90201DDE973
:4031C000042300F049FF01F10041D7E7DDE90423DDE9020100F024FAD0E70124DDE90201009400F039FFC9E7FB21E93FFFFFEF7F2DE9F04F944C21F00047A7428FB040F312
:4032000081801446914A0E46974226DC84A3D3E90023002940F3A08101F0E0F88C4B80469F42894600F083807FA3D3E9002301F0D5F802460B464046C4E90023494601F06F
:40324000CDF879A3D3E9002301F0C8F80125C4E9020128460FB0BDE8F08F7E4A974240F383807D4A974258DC3D15A5F21645A7EB05518B46824601F0FFFC01F0FDF98046AD
:40328000894642464B4650465946CDE9088901F0A5F80022714B01F055FA8B46824601F0EBFC01F0E9F98046894642464B4650465946CDE90A8901F091F80022674B01F04F
:4032C00041FA00220023CDE90C0101F0A3FC002800F06A81002340464946002201F09AFC002814BF012302235D480221019000912A46214608A800F0B7FA002EC0F24A8116
:40330000054606E0C2E9000100250024C2E90245002528460FB0BDE8F08F02460B4601F05DF80025C4E90201C4E90001F1E740A3D3E9002301F052F83FA3D3E900230646BB
:403340000F4601F04BF802460B463046C4E90023394601F043F838A3D3E9002301F03EF80125C4E90201D4E700F02CFF34A3D3E900238046894601F0E5F90022394B01F0FC
:403380002FF801F079FC054601F076F924A3D3E90023CDE9040101F0D5F902460B464046494601F01BF820A3D3E9002382468B46DDE9040101F0C6F91F2DCDE9020155DC17
:4033C000294B6A1E53F822309F424FD002460B465046594601F002F802460B4681468846C4E900234A4643465046594600F0F6FFDDE9022300F0F2FF02460B46002EC4E90A
:40340000022386DA4A4608F1004301F1004184E80C00E160A0606D427BE700BFAFF3008000004054FB21F93F3163621A61B4D03D0000601A61B4D03D7370032E8A19A33B12
:4034400083C8C96D305FE43FFB21E93F7BD90240FB21F93FFB213941FFFFEF7F00007041185E00000000E03F985D0000DDE902235046594600F0B2FF3F15C1F30A53FB1A73
:40348000102B81468846C4E90001ABDD58A3D3E90023DDE9040101F055F98046894602460B465046594600F099FFCDE9060102460B465046594600F091FF42464B4600F023
:4034C0008DFF4DA3D3E9002380468946DDE9040101F038F942464B4600F080FF02460B46CDE90201DDE9060100F078FF0B4602468846C1F30A517F1A312F8146C4E90023DB
:4035000072DD3FA3D3E90023DDE9040101F01AF98046894602460B46DDE9060100F05EFF02460B4682468B46DDE9060100F056FF42464B4600F052FF33A3D3E9002380464B
:403540008946DDE9040101F0FDF842464B4600F045FFCDE9020139E700F042FF2E4B80469F42894622D02AA3D3E9002300F038FF02460B464046C4E90023494600F02EFF25
:4035800023A3D3E9002300F02BFF4FF0FF35C4E90201BEE66268E36802F1004203F1004345426260E360B4E603239DE610A3D3E9002300F015FF10A3D3E9002306460F466C
:4035C00000F00EFF02460B463046C4E90023394600F004FF08A3D3E9002300F001FF4FF0FF35C4E9020194E6DDE906ABFAE600BF0000601A61B4D03D7370032E8A19A33B1F
:403600000000002E8A19A33BC14920259A837B393163621A61B4D03DFB21F93F000000002DE9F04F21F00046B6F1795F85B00C4692469B4605466BDA01F01EFB002800F018
:40364000E7802A4623462846214601F07BF874A3D3E900238046894601F074F872A3D3E9002300F0BDFE42464B4601F06BF870A3D3E9002300F0B2FE42464B4601F062F8E7
:403680006DA3D3E9002300F0ABFE42464B4601F059F86BA3D3E9002300F0A0FE42464B4601F050F868A3D3E9002300F099FE42464B4601F047F8CDE900010022644B404692
:4036C000494601F03FF8DDE9002306460F464046494601F037F85246804689465B462846214601F02FF802460B464046494600F075FE02460B463046394600F06FFE024655
:403700000B460020534900F069FE05B0BDE8F08F02460B4601F016F841A3D3E900238046894601F00FF840A3D3E9002300F058FE42464B4601F006F83DA3D3E9002300F0A5
:403740004DFE42464B4600F0FDFF3BA3D3E9002300F046FE42464B4600F0F4FF38A3D3E9002300F03BFE42464B4600F0EBFF36A3D3E9002300F034FE4B46424600F0E2FF72
:40378000354BCDE900019E4297DD344B00229E4238DCA6F5001300202E4916461F4600F01DFECDE902010022294B4046494600F0C9FF32463B4600F011FEDDE9002306468F
:4037C0000F464046494600F0BDFF5246804689465B462846214600F0B5FF02460B464046494600F0FBFD02460B463046394600F0F5FD02460B46DDE9020100F0EFFD05B073
:40380000BDE8F08F164B0026CDE90223154FCAE71049002005B0BDE8F08F00BFAFF30080D43888BEE9FAA8BDC4B1B4BD9EEE213EAD529C804F7E923E9015CB19A001FA3E35
:403840007751C1166CC1563F4C5555555555A53F0000E03F0000F03F3233D33F0000E93F0000E73F0000D23F2DE9F04F794CADF51D7D1F460B93D31E84FB0354DB17C3EB2A
:40388000A403A69E744C23EAE37554F826406B1C26460994A3EB83037C1E0D95029402EBC3032D1B341904900A91089316D42C44013422AEA79F08E057F8250000F0DCFEF3
:4038C0000135A542E6E9020108D0002DF4DA013500200021A542E6E90201F6D1099B002B2FDB099B74AADDF8089002EBC30B0DF5E47A029B002BC0F295810B9B0026C3EBE2
:40390000090824AB03EBC808049B0027A3F1080524AB03EBC904F5E9022374E8020100F011FF02460B463046394600F059FD444506460F46EFD1EAE90267DA4509F1010979
:40394000D7D1099B10A91D4603F18043023B9B001A1D0A440B440F920E939CAB03EBC503002D53E928672BDD9CAB03EBC504A83C0DF13C0A0DF5E47B0022384B304639461C
:4039800000F0E0FE01F078F900F076FE0022344B8046894600F0D6FE02460B463046394600F01CFD01F068F974E802234AF8040F4946404600F014FD5C4506460F46DBD1B6
:4039C000089C30463946224600F08AFC00224FF07F5306460F4600F0B5FE00F0F9FB0022204B00F0AFFE02460B463046394600F0F5FC0F46064601F03FF9814600F03CFEA1
:403A000002460B463046394600F0E8FC002C06460F4640F3EE80681E10AB53F82030C4F1180243FA02F101FA02F29B1AC4F1170810AA42F82030894443FA08F8B8F1000F5D
:403A40003DDD002D09F1010940F3D382002214460FA911E0ABAAAA2A205F00000000703E0000704100002040C3F180700BB108600124013295420DDD51F8043F002CF3D08B
:403A8000C3F1FF13013203F57F4395420B604FF00104F1DC089B002B0DDD012B00F0B180022B08D16A1E10AB53F8223010A9C3F3150341F82230B8F1020F00F08180002236
:403AC00000233046394601F0A5F8002800F05B82099B05F1FF3B5B4510DC05F1804310AA013B0F9802EB8303002253F80419834242EA0102F9D1002A40F0B180099B10AAD1
:403B0000013B52F82330002B40F071820E9A012352F8041901330029FAD0E9186A1C8A420C914BDC0D990B985118DB0001F180410593A79B05440139E80003EB810A24AB20
:403B4000D20003EB000B74AB13440193A2F10803069007934FF000095AF8040F00F08CFD029BEBE80201002B4FF000064FF000071BDB069B03EB0904079B09EB030824AB51
:403B80001C449844049BA3F10805F5E9022374E8020100F0D7FD02460B463046394600F01FFC444506460F46EFD1019B09F10809E3E802670193059B9945CDD10C9DCCE6FA
:403BC00032463B460020B04900F008FC06460F46002C3FF474AF089A0020AB4900F080FB02460B463046394600F0F8FB06460F4665E710D16B1E10AA52F823304FEAE358E8
:403C00001CE76A1E10AB53F8223010A9C3F3160341F822304FE700229C4B01F019F858B980464CE700260027EAE90267DA4509F101097FF45EAE84E6002D09F10109C8BFF6
:403C40004FF002083FF702AF32463B4600208E4900F0C4FB4FF0020806460F462FE7089A10AB53F82B30183ACDF81490CDF8048008926BB90BF18043013B10A901EB83038A
:403C800053F804190BF1FF3B183A0029F8D00892089A00207C4900F023FBBBF1000F04460D46C0F2B6814FEACB030DF5E87810AA02EB8B0608EB03090493043609F1080739
:403CC00056F8040D00F0D8FC22462B4600F03AFD002267E902016E4B2046294600F032FDB84504460D46EBD14B46CDF818B09B460DF5987ACDF808A0DDF824A04FF00009C8
:403D0000BAF1000FC0F226815DA3D3E90023DFF884815D4600260027002403E0A14510DBF8E90223F5E8020100F00CFD02460B463046394600F054FB0134A24506460F4684
:403D4000ECDA029BABF1080B03EBC903C3E9006772AB5B4509F10109D2D1A69BDDF818B0DDF808A0032B00F28380DFE813F0D100950095000400BBF1000F40F35481049B57
:403D8000CDF808B053449846D3E90067D34658E9029A32463B464846514600F021FB04460D4602460B464846514600F017FB32463B4600F015FBC8E9000168E90245C34526
:403DC00026462F46E3D1DA46DDF808B0BBF1010F40F32981049B0DF59C7B53449846D3E90067994659E902343046CDE902341A463946234600F0F4FA04460D4602460B4683
:403E0000DDE9020100F0EAFA32463B4600F0E8FAC9E9000169E90245CB4526462F46E1D100231D4608F1080850AC184678E90223294600F0D5FA444503460D46F5D1019A08
:403E4000002A00F0D880DAF80440DAF80C200A9FDAF80010DAF8080005F1004504F1004402F100427D613B617C60FA603960B860059B03F007000DF51D7DBDE8F08F00BF34
:403E800000000040FB21F93F0000F03F0000E03F0000703E305F000000242146049D0835554475E90223204600F09AFA55450446F7D1019B002B50D00A9F01F100450B46B0
:403EC000DAE9000187E83000224600F087FABBF1000F03460D460DDD01241846FAE90223294600F07DFA0134A34503460D46F4DA019A0AB105F10045184629460A9BC3E9AE
:403F00000201059B03F007000DF51D7DBDE8F08F00231C46049A0832924418467AE90223214600F05DFA0BF1FF3BBBF1FF3F03460C46F2D1019A0AB104F10044184621468B
:403F40000A9BC3E90001059B03F007000DF51D7DBDE8F08F00260027F3E626460F4622460A9C0B46DAE90001C4E9006700F036FABBF1000F03460D46AEDC184629460A9B04
:403F8000C3E90201BDE7089B30465A423946CDF81490CDF8048000F0A3F900222C4B06460F4600F055FE002840D00022294B3046394600F0C7FB00F05FFE044600F05CFB6C
:403FC0000022234B00F0BEFB0B4602463946304600F004FA00F050FE089B05F1010B1833089310AB43F8250043F82B4050E6012393E500244EE51846DAE90067DAE90223E9
:4040000029460A9DC5E90067C5E90401C5E902232EE7A69B032B3FF62BAFDFE803F0151010020DF5987A00231D4608E73046394600F022FE10ABAB4643F8250028E600247F
:4040400021460DF5987A34E700231C4672E700BF000070410000703E2DE9F04F21F00046B6F1795F85B00C4690469946054604DA00F002FE002800F085802A4623462846CA
:40408000214600F05FFB06460F4602460B462846214600F057FB3EA3D3E9002382468B463046394600F04EFB3BA3D3E9002300F095F932463B4600F045FB39A3D3E9002358
:4040C00000F08EF932463B4600F03CFB36A3D3E9002300F083F932463B4600F033FB34A3D3E9002300F07CF90E9BCDE900019BB30022334B4046494600F024FBDDE9002378
:40410000CDE902015046594600F01CFB02460B46DDE9020100F062F932463B4600F012FB42464B4600F05AF923A3D3E9002306460F465046594600F005FB02460B46304611
:40414000394600F04DF902460B462846214600F045F905B0BDE8F08F02460B463046394600F0F0FA14A3D3E9002300F037F952465B4600F0E7FA2A46234600F031F905B045
:40418000BDE8F08F2846214605B0BDE8F08F00BF7CD5CF5A3AD9E53DEB9C2B8AE6E55A3E7DFEB157E31DC73ED561C119A0012A3FA6F810111111813F495555555555C53FE7
:4041C0000000E03F21F00041704700BF00000000C1F30A522DE9F843A2F2FF36132E0B4604460D46884607461CDC002E3FDB3A4A864642FA06F901EA0902024317D034A3A0
:40420000D3E9002300F0ECF80022002300F02AFD20B1002D40DB28EA0905002738462946BDE8F883332E06DDB6F5806F2FD020461946BDE8F883A2F213424FF0FF3929FABD
:4042400002F910EA090FF2D021A3D3E9002300F0C7F80022002300F005FD0028DED0002D20DB454627EA090738462946D8E718A3D3E9002300F0B4F80022002300F0F2FC37
:404280000028CBD0002D18DB00273D46C6E702460B4600F0A5F8CCE74FF4801343FA06F6B044B8E7142E10D00123C6F1340603FA06F6371928BF9844D3E725F00042074BA3
:4042C000224318BF1D460027A8E705F10108C8E79C7500883CE4377EFFFF0F000000F0BFF8B5C1F30A5604460D460B46174606BB21F00043034325D000222F4B00F022FA8D
:404300002E4A044697420D460B462ADBC1F30A56363E40F2FE723E44964228DC002E12DD23F0FF4323F4E00343EA065520462946F8BD40F2FF729642EBD102460B4600F073
:404340004FF8F8BDF8BD16F1350F1DDA4CF250339F420CDC14A1D1E9000122462B4600F031F811A3D3E9002300F0ECF9F8BD22460FA1D1E900012B4600F024F80CA3D3E986
:40438000002300F0DFF9F8BD23F0FF4323F4E003363643EA0655204629460022084B00F0D1F9F8BDAFF3008059F3F8C21F6EA5019C7500883CE4377E00005043B03CFFFF1B
:4043C0000000903C03F0004321F0004242EA0301704700BF81F0004102E000BF83F0004330B54FEA41044FEA430594EA050F08BF90EA020F1FBF54EA000C55EA020C7FEA13
:40440000645C7FEA655C00F0E2804FEA5454D4EB5555B8BF6D420CDD2C4480EA020281EA030382EA000083EA010180EA020281EA0303362D88BF30BD11F0004F4FEA01318C
:404440004FF4801C4CEA113102D0404261EB410113F0004F4FEA03334CEA133302D0524263EB430394EA050F00F0A780A4F10104D5F1200E0DDB02FA0EFC22FA05F28018FC
:4044800041F1000103FA0EF2801843FA05F359410EE0A5F120050EF1200E012A03FA0EFC28BF4CF0020C43FA05F3C01851EBE37101F0004507D54FF0000EDCF1000C7EEBEE
:4044C00000006EEB0101B1F5801F1BD3B1F5001F0CD349085FEA30004FEA3C0C04F101044FEA445212F5800F80F09A80BCF1004F08BF5FEA500C50F1000041EB045141EA01
:40450000050130BD5FEA4C0C404141EB010111F4801FA4F10104E9D191F0000F04BF01460020B1FA81F308BF2033A3F10B03B3F120020CDA0C3208DD02F1140CC2F10C0208
:4045400001FA0CF021FA02F10CE002F11402D8BFC2F1200C01FA02F120FA0CFCDCBF41EA0C019040E41AA2BF01EB0451294330BD6FEA04041F3C1CDA0C340EDC04F1140436
:40458000C4F1200220FA04F001FA02F340EA030021FA04F345EA030130BDC4F10C04C4F1200220FA02F001FA04F340EA0300294630BD21FA04F0294630BD94F0000F83F42F
:4045C000801306BF81F480110134013D4EE77FEA645C18BF7FEA655C29D094EA050F08BF90EA020F05D054EA000C04BF1946104630BD91EA030F1EBF0021002030BD5FEA49
:40460000545C05D14000494128BF41F0004130BD14F580043CBF01F5801130BD01F0004545F0FE4141F470014FF0000030BD7FEA645C1ABF194610467FEA655C1CBF0B465F
:40464000024650EA013406BF52EA033591EA030F41F4002130BD00BF90F0000F04BF0021704730B54FF4806404F132044FF000054FF0000150E700BF90F0000F04BF00216D
:40468000704730B54FF4806404F1320410F0004548BF40424FF000013EE700BF42004FEAE2014FEA31014FEA02701FBF12F07F4393F07F4F81F06051704792F0000F14BF76
:4046C00093F07F4F704730B54FF4607401F0004521F0004120E700BF50EA010208BF704730B54FF000050AE050EA010208BF704730B511F0004502D5404261EB41014FF48A
:40470000806404F132045FEA915C3FF4DCAE4FF003025FEADC0C18BF03325FEADC0C18BF033202EBDC02C2F1200300FA03FC20FA02F001FA03FE40EA0E0021FA02F1144479
:40474000C1E600BF70B54FF0FF0C4CF4E06C1CEA11541DBF1CEA135594EA0C0F95EA0C0F00F0DEF82C4481EA030621EA4C5123EA4C5350EA013518BF52EA033541F4801171
:4047800043F4801338D0A0FB02CE4FF00005E1FB02E506F00042E0FB03E54FF00006E1FB03569CF0000F18BF4EF0010EA4F1FF04B6F5007F64F5407404D25FEA4E0E6D4189
:4047C00046EB060642EAC62141EA55514FEAC52040EA5E504FEACE2EB4F1FD0C88BFBCF5E06F1ED8BEF1004F08BF5FEA500E50F1000041EB045170BD06F0004646EA0101B9
:4048000040EA020081EA0301B4EB5C04C2BFD4EB0C0541EA045170BD41F480114FF0000E013C00F3AB8014F1360FDEBF002001F0004170BDC4F10004203C35DA0C341BDCB1
:4048400004F11404C4F1200500FA05F320FA04F001FA05F240EA020001F0004221F0004110EBD37021FA04F642EB06015EEA430E08BF20EAD37070BDC4F10C04C4F12005AE
:4048800000FA04F320FA05F001FA04F240EA020001F0004110EBD37041F100015EEA430E08BF20EAD37070BDC4F1200500FA05F24EEA020E20FA04F301FA05F243EA020316
:4048C00021FA04F001F0004121FA04F220EA020000EBD3705EEA430E08BF20EAD37070BD94F0000F0FD101F00046400041EB010111F4801F08BF013CF7D041EA060195F014
:40490000000F18BF704703F00046520043EB030313F4801F08BF013DF7D043EA0603704794EA0C0F0CEA135518BF95EA0C0F0CD050EA410618BF52EA4306D1D181EA03018A
:4049400001F000414FF0000070BD50EA410606BF1046194652EA430619D094EA0C0F02D150EA013613D195EA0C0F05D152EA03361CBF104619460AD181EA030101F000417E
:4049800041F0FE4141F470014FF0000070BD41F0FE4141F4780170BD70B54FF0FF0C4CF4E06C1CEA11541DBF1CEA135594EA0C0F95EA0C0F00F0A7F8A4EB050481EA030EA4
:4049C00052EA03354FEA013100F088804FEA03334FF0805545EA131343EA12634FEA022245EA111545EA10654FEA00260EF000419D4208BF964244F1FD0404F5407402D23D
:404A00005B084FEA3202B61A65EB03055B084FEA32024FF480104FF4002CB6EB020E75EB030E22BFB61A754640EA0C005B084FEA3202B6EB020E75EB030E22BFB61A75464A
:404A400040EA5C005B084FEA3202B6EB020E75EB030E22BFB61A754640EA9C005B084FEA3202B6EB020E75EB030E22BFB61A754640EADC0055EA060E18D04FEA051545EA6B
:404A800016754FEA06164FEAC30343EA52734FEAC2025FEA1C1CC0D111F4801F0BD141EA00014FF000004FF0004CB6E711F4801F04BF01430020B4F1FD0C88BFBCF5E06F43
:404AC0003FF6AFAEB5EB030C04BFB6EB020C5FEA500C50F1000041EB045170BD0EF0004E4EEA113114EB5C04C2BFD4EB0C0541EA045170BD41F480114FF0000E013C90E686
:404B000045EA060E8DE60CEA135594EA0C0F08BF95EA0C0F3FF43BAF94EA0C0F0AD150EA01347FF434AF95EA0C0F7FF425AF104619462CE795EA0C0F06D152EA03353FF450
:404B4000FDAE1046194622E750EA410618BF52EA43067FF4C5AE50EA41047FF40DAF52EA43057FF4EBAE12E74FF0FF3C06E000BF4FF0010C02E000BF4FF0010C4DF804CD64
:404B80004FEA410C7FEA6C5C4FEA430C18BF7FEA6C5C1BD001B050EA410C0CBF52EA430C91EA030F02BF90EA020F0020704710F1000F91EA030F58BF994208BF90422CBF72
:404BC000D8176FEAE37040F0010070474FEA410C7FEA6C5C02D150EA013C07D14FEA430C7FEA6C5CD6D152EA033CD3D05DF8040B704700BF8446104662468C46194663465F
:404C000000E000BF01B5FFF7B7FF002848BF10F1000F01BD4DF808EDFFF7F4FF0CBF012000205DF808FB00BF4DF808EDFFF7EAFF34BF012000205DF808FB00BF4DF808ED92
:404C4000FFF7E0FF94BF012000205DF808FB00BF4DF808EDFFF7CEFF94BF012000205DF808FB00BF4DF808EDFFF7C4FF34BF012000205DF808FB00BF4FEA410212F5001239
:404C800015D211D56FF47873B3EB625212D94FEAC12343F0004343EA505311F0004F23FA02F018BF404270474FF00000704750EA013005D111F0004008BF6FF00040704735
:404CC0004FF00000704700BF4A0011D212F5001211D20DD56FF47873B3EB62520ED44FEAC12343F0004343EA505323FA02F070474FF00000704750EA013002D14FF0FF30A7
:404D000070474FF00000704780F0004002E000BF81F0004142001FBF5FEA410392EA030F7FEA226C7FEA236C6AD04FEA1262D2EB1363C1BFD218414048404140B8BF5B4277
:404D4000192B88BF704710F0004F40F4000020F07F4018BF404211F0004F41F4000121F07F4118BF494292EA030F3FD0A2F1010241FA03FC10EB0C00C3F1200301FA03F153
:404D800000F0004302D5494260EB4000B0F5000F13D3B0F1807F06D340084FEA310102F10102FE2A51D2B1F1004F40EBC25008BF20F0010040EA03007047490040EB00006E
:404DC00010F4000FA2F10102EDD1B0FA80FCACF1080CB2EB0C0200FA0CF0AABF00EBC25052421843BCBFD0401843704792F0000F81F4000106BF80F400000132013BB5E797
:404E00004FEA41037FEA226C18BF7FEA236C21D092EA030F04D092F0000F08BF0846704790EA010F1CBF0020704712F07F4F04D1400028BF40F00040704712F100723CBFE0
:404E400000F50000704700F0004343F0FE4040F4000070477FEA226216BF08467FEA23630146420206BF5FEA412390EA010F40F4800070474FF0000304E000BF10F00043DE
:404E800048BF40425FEA000C08BF704743F0964301464FF000001CE050EA010208BF70474FF000030AE000BF50EA010208BF704711F0004302D5404261EB41015FEA010C26
:404EC00002BF84460146002043F0B64308BFA3F18053A3F50003BCFA8CF2083AA3EBC25310DB01FA02FC634400FA02FCC2F12002BCF1004F20FA02F243EB020008BF20F049
:404F00000100704702F1200201FA02FCC2F1200250EA4C0021FA02F243EB020008BF20EADC7070474FF0FF0C1CEAD0521EBF1CEAD15392EA0C0F93EA0C0F6FD01A4480EA8E
:404F4000010C400218BF5FEA41211ED04FF0006343EA501043EA5111A0FB01310CF00040B1F5000F3EBF490041EAD3715B0040EA010062F17F02FD2A1DD8B3F1004F40EBAD
:404F8000C25008BF20F00100704790F0000F0CF0004C08BF49024CEA502040EA51207F3AC2BFD2F1FF0340EAC250704740F400004FF00003013A5DDC12F1190FDCBF00F094
:404FC00000407047C2F10002410021FA02F1C2F1200200FA02FC5FEA310040F1000053EA4C0308BF20EADC70704792F0000F00F0004C02BF400010F4000F013AF9D040EACF
:405000000C0093F0000F01F0004C02BF490011F4000F013BF9D041EA0C018FE70CEAD15392EA0C0F18BF93EA0C0F0AD030F0004C18BF31F0004CD8D180EA010000F00040D6
:40504000704790F0000F17BF90F0004F084691F0000F91F0004F14D092EA0C0F01D142020FD193EA0C0F03D14B0218BF084608D180EA010000F0004040F0FE4040F4000032
:40508000704740F0FE4040F4400070474FF0FF0C1CEAD0521EBF1CEAD15392EA0C0F93EA0C0F69D0A2EB030280EA010C49024FEA402037D04FF0805343EA111143EA10131A
:4050C0000CF000408B4238BF5B0042F17D024FF4000C8B4224BF5B1A40EA0C00B3EB510F24BFA3EB510340EA5C00B3EB910F24BFA3EB910340EA9C00B3EBD10F24BFA3EBB8
:40510000D10340EADC001B0118BF5FEA1C1CE0D1FD2A3FF650AF8B4240EBC25008BF20F0010070470CF0004C4CEA50207F32C2BFD2F1FF0340EAC250704740F400004FF031
:405140000003013A37E792F0000F00F0004C02BF400010F4000F013AF9D040EA0C0093F0000F01F0004C02BF490011F4000F013BF9D041EA0C0195E70CEAD15392EA0C0F61
:4051800008D142027FF47DAF93EA0C0F7FF470AF084676E793EA0C0F04D14B023FF44CAF08466EE730F0004C18BF31F0004CCAD130F000427FF45CAF31F000437FF43CAFE6
:4051C0005FE700BF014B1868704700BFC481FF1F0E4B70B51E460E4C0025E41AA410A54204D056F8253098470135F8E700F0DCFE084B094C1E46E41AA4100025A54204D038
:4052000056F8253098470135F8E770BDB45F0000B45F0000B45F0000BC5F000010B5431E0A44914204D011F8014B03F8014FF8E710BD03460244934202D003F8011BFAE7C1
:40524000704700000EB400B54FF402719CB0ADF814106FF00041049107914FF6FF711DAB02900690084853F8042BADF81610006802A9019300F064F8029B00221A701CB026
:405280005DF804EB03B07047C481FF1F2DE9F0478E6882469E420C46914698463ED88A8912F4906F3AD02568096902236F1A656905EB450595FBF3F57B1C43449D4238BF92
:4052C0001D4653050FD5294600F040FB064698B13A462169FFF7A2FFA38923F4906343F08003A38113E02A4600F08EFB064670B92169504600F0DEFA0C23CAF80030A389A9
:405300004FF0FF3043F04003A381BDE8F08726613E44266046466561ED1BA560464528BF464649463246206800F0A8FAA36800209B1BA36023681E442660BDE8F0870000C9
:405340002DE9F04F9DB003938B8980461C060D4616460DD50B695BB9402100F0F7FA2860286118B90C23C8F80030CDE040236B610023099320238DF82930DFF89CB130236A
:405380008DF82A3037463C4614F8013B1BB9B7EB060910D003E0252BF9D02746F3E74B46324629464046FFF771FF013000F0A780099B4B4409933B78002B00F0A080002393
:4053C0004FF0FF3204930793059206938DF853301A930126052221784E4800F041FA671C049B38B14B4A3C46801A06FA00F018430490EFE7D90644BF20228DF853201A07D1
:4054000044BF2B228DF8532022782A2A03D0079A00210A200BE0039A111D12680391002A10DA524243F00200079204900BE027463B780134303B092B03D800FB023201219E
:40544000F5E701B107923B782E2B1ED17B782A2B0AD1039B02371A1D1B680392002BB8BF4FF0FF33059310E0002319460593781C0A2407463A780130303A092A03D804FBA3
:4054800001210123F5E703B1059103223978224800F0E6F940B14023CBEB000003FA00F0049B013718430490397806221B487E1C8DF8281000F0D4F988B1194B33B9039B3D
:4054C000073323F007030833039314E003AB00932A46144B04A94046AFF3008007E003AB00932A460F4B04A9404600F093F8B0F1FF3F824603D0099B5344099342E7AB89DD
:405500005B0601D4099801E04FF0FF301DB0BDE8F08F00BF725F0000785F00007C5F0000000000008D5200002DE9F04791461F460A698B6806469342B8BF1346C9F8003062
:4055400091F843200C46DDF8208012B10133C9F800302368990642BFD9F800300233C9F80030256815F0060510D104F1190A07E00123524639463046C04701301AD00135B8
:40558000E368D9F800209B1A9D42F1DB94F843302268003318BF012392060FD5E118302081F843005A1C94F845102244023382F8431003E04FF0FF30BDE8F08704F14302B1
:4055C00039463046C0470130F4D02268D9F80050E36802F00602042A08BF5D1B2269A3680CBF25EAE57500259342C4BF9B1AED184FF000091A344D4509D001232246394650
:405600003046C0470130D5D009F10109F3E70020BDE8F0872DE9F04317460A7E85B06E2A984606460C460C9B01F1430E00F0AE8011D8632A22D009D8002A00F0BB80582A5E
:4056400040F0CA8081F84520834955E0642A1ED0692A1CD0C0E0732A00F0B08009D86F2A2ED0702A40F0B8800A6842F020020A603EE0752A24D0782A3AD0ADE01A6801F171
:405680004205111D1960136884F84230A8E021681A6811F0800F02D0111D196008E011F0400F02F10401196002D0B2F9003000E01368002B3CDA2D225B4284F8432037E023
:4056C00021681A6811F0800F02D0111D196007E011F0400F02F10401196001D0138800E01368227E5C496F2A14BF0A2208221BE078225A4984F845202268186812F0800F6C
:4057000000F104051D6003D1550601D5038800E00368D00744BF42F0200222601BB9226822F0200222601022002084F8430001E049490A226568002DA56008DB206820F029
:40574000040020602BB9002D7DD175460CE0002B79D07546B3FBF2F002FB1033CB5C05F8013D03460028F5D1082A0BD12368DA0708D5236962689A42DEBF302305F8013C54
:4057800005F1FF35C5EB0E0323612EE008681A6810F0800F496903D0101D1860136808E010F0400F02F104001860136801D0198000E0196000232361754616E01A68111D5A
:4057C0001960156800216268284600F049F808B1401B6060636804E004F1420584F8422001232361002384F84330CDF800803B4603AA21463046FFF797FE013002D14FF0B4
:40580000FF3026E023692A4639463046C0470130F5D023689B0710D5002504F1190907E001234A4639463046C0470130E7D00135E368039A9B1A9D42F2DBE068039B984239
:40584000B8BF184605E00B7804F1420584F842308AE705B0BDE8F083835F0000945F000010B5C9B202449042034605D01C7801308C42F8D1184610BD002010BD884210B535
:4058800001EB020301D8421E0BE09842FBD28118D21AD34204D013F8014D01F8014DF8E710BD994204D011F8014B02F8014FF8E710BD000038B50546002944D051F8043C7A
:4058C0000C1F002BB8BFE41800F0D4F81E4A1368114613B96360146030E0A3420DD92268A018834201BF18685B681218226063600C6023E0A24203D813465A68002AF9D155
:4059000018681918A1420BD12168014458188242196013D110685268014419605A600DE002D90C232B6009E021686018824201BF106852680918216062605C602846BDE899
:40594000384000F098B838BD0C82FF1F70B5CD1C25F0030508350C2D38BF0C25002D064601DBA94202D90C23336046E000F082F8234B1C681A462146A1B10B685B1B0ED4C2
:405980000B2B03D90B60CC18CD501EE08C420BBF63684B681360636018BF0C4615E00C464968E9E7174C23681BB9304600F052F820602946304600F04DF8431C18D0C41CFB
:4059C00024F00304A0420DD12560304600F053F804F10B00231D20F00700C31A0ED05A42E25070BD211A304600F034F80130EBD10C233360304600F03EF8002070BD00BF65
:405A00000C82FF1F0882FF1FF8B5074615460E4621B91146BDE8F840FFF798BF1AB9FFF749FF2846F8BD00F027F885420ED929463846FFF78BFF044650B131462A46FFF788
:405A4000EDFB31463846FFF735FF01E03046F8BD2046F8BD38B5064C0023054608462360FBF7BCFD431C02D1236803B12B6038BDEC6D00207047704751F8040C0028BEBFF9
:405A8000091851F8043CC01804387047000000005072657373202725632720746F2072756E207468652073657175656E636520616E642073686F77207468652072657375A8
:405AC0006C747320284153434949207461626C65290000005072657373202725632720746F206F6E6C792072756E207468652073657175656E636520284E6F2041534349D5
:405B000049207461626C652C2063757272656E746C79206D656173757265643A204368616E6E656C20256429000000005072657373202725632720746F206F6E6C792072EB
:405B4000756E2074686520616C7465726E6174696E672073657175656E636520286F64643A20434833206973206F66662C206576656E3A20434834206973206F666629002E
:405B80005072657373202725632720746F2073686F77206C61737420726573756C747320284153434949207461626C65290000005072657373202725632720746F207377E6
:405BC0006974636820746F206E657874206368616E6E656C20616E642072756E207468652073657175656E6365290000507265737320272563272C20272563272C2027259A
:405C00006327206F72202725632720666F72206D6561737572696E672044414320312E2E34206F72202725632720666F72206D6561737572696E67204750494F2050302E62
:405C4000370000005072657373202725632720746F20726573657420746865206465766963652028536F667477617265207265736574290043757272656E746C79207365F4
:405C80006C6563746564206368616E6E656C20666F722064617461206D6F6E69746F72696E673A2025640000436F756E74206F662073657175656E63652072756E73206130
:405CC000667465722072657365743A20256400004144435F312056616C75652025642C302075733A09202025640000004144435F322056616C75652025642C352075733A7D
:405D0000092020256400000044617461206C697374696E672061626F727465642E2E2E0A0A0000002A2047656E65726174652073657175656E63652E2E2E00002A205365E4
:405D40007175656E63652072656164792E000000205A0040945A0040205A0040065B00400D5100400110020801000000004F00400C00405100403000000001400010001441
:405D80000140000800400140000A004C014000020050014020000000FB21F93FFB2109407CD91240FB2119407A6A1F407CD92240BBFD2540FB2129403A462C407A6A2F401F
:405DC0005C4731407CD932409C6B3440BBFD3540DB8F3740FB2139401BB43A403A463C405AD83D407A6A3F404C7E40405C4741406C1042407CD942408CA243409C6B4440D4
:405E0000AC344540BBFD4540CBC64640DB8F4740EB584840FB21494083F9A200444E6E00FC291500D1572700DD34F50062DBC0003C999500419043006351FE00BBDEAB002A
:405E4000B761C5003A6E2400D24D42004906E00009EA2E001C92D100EB1DFE0029B11C00E83EA700F535820044BB2E009CE98400B4267000417E5F00D69139005383390087
:405E80009CF439008B5F840028F9BD00F81F3B00DEFF97000F980500112FEF000A5A8B006D1F6D00CF7E360009CB2700464FB7009E663F002DEA5F00BA277500E5EBC700D4
:405EC0003D7BF100F739070092528A00FB6BEA001FB15F00085D8D00300356007BFC4600F0AB6B0020BCCF0036F49A00E3A91D005E619100081BE60085996500A0145F0090
:405F00008D40680080D8FF0027734D0006063100CA561500C9A873007BE260006B8CC0000200000003000000040000000600000000000040FB21F93F000000002D44743E5E
:405F4000000000809846F83C0000006051CC783B00000080831BF0390000004020257A38000000802282E336000000001DF369354300232D302B2000686C4C006566674551
:405F800046470030313233343536373839414243444546003031323334353637383961626364656600000000F8B500BFF8BC08BC9E4670474D00000059160000F8B500BFA9
:405FC000F8BC08BC9E46704729000000E05F0000C880FF1F0001000028EC00000000000000000000D080FF1F55F9943C55F9943C4E7AD83E4E7AD83E000000000000000045
:40600000000000000000000000000000DB0FC93F0000000000000000DB0FC93FDB0FC93FDB0FC93FDB0FC93F3333A9423333A9423333A9423333A9420000B4420000B44276
:406040000000B4420000B44200800000000001000000020000000300F06D00207F8000003F0000000000A08C401901004800000000A24A04FFFFFFFFFFFFFF00000000003C
:4060800000000000000000000000000000000000000000000000000000000000705F0000000000000000000000000000000000000000000000000000000000000000000011
:4060C000000000000000000000000000000000000000000000000000000000006481FF1F00000000000000000000000000000000000000000000000000000000000000009D
:40610000000000000000000000000000000000000000000000000000000000000000000000000000000000000000000000000000000000000000000000000000000000005F
:40614000000000000000000000000000000000000000000000000000000000000000000000000000000000000000000000000000000000000000000000000000000000001F
:4061800000000000000000000000000000000000000000000000000000000000000000000000000000000000000000000000000000000000000000000000000000000000DF
:4061C000000000000000000000000000000000000000000000000000000000000000000000000000000000000000000000000000000000000000000000000000000000009F
:020000040003F7
:0200000480007A
:40000000024F0040035A004001640040026500400101014032020140350301406104014042050140510601404507014001090140040B0140040C0140010D0140010F014036
:40004000441401403B150140511601403C17014002190140021B014015400140184101400A4201400F430140044401400445014009460140074701400748014005490140BF
:400080000D4C0140054D01400C5001400551014001800A871B202B20CF04850F857286388C10020107050801150A1601170419031A011B0C1D031F042401250327042B08DA
:4000C0003001350F3B203E01580459045B2B5D905F01850C87038A038B03960699019A059B069F08A202A501A601A70EA806AA01AB0CB207B30FBA08BB08D201D804D904D0
:40010000DB29DD90DF01001004100642078209100A100C200D180E0410A012081708181019081E80210C2208251026202708280429082C042D082E103080322036283780FB
:4001400039283E0459015F02610462906608670568017B047C02834094209502AD01C052C266C42ECA66CC7CCE46D681D87EDE8405200602080209090B100D20100113034F
:40018000151C170219141D102320250C271129102B0C3002311F32013320380239083E053F044105440445CF46DE47B0482F49FF4AFF4BFF4CEA4D554EB04F48501C52013B
:4001C000580459045A295B2B5D995F0161086308650867086850690A6A406BA86CC06E406FA88401880196019802A404B203B404B808BE10C104C405C5EDC60BC7CFC837D6
:40020000C9FFCAFFCBFFCCEACD55CEB0CF48D01CD401D804DA2BDB04DD09DF01E108E308E508E708E850E90AEA40EBA8ECC0EE40EFA8020403280528070809020C200D08ED
:40024000150818201A801C101E1421022320292A3080310A3220381039403A0441014702480149054F8551015290560A57405E855F106B0278027B047C0281028328942003
:4002800095029610970599089B089C029D059E5AA001A118A240A4A0A680A744C066C268C420CA07CC0FCE0ED081D218D6F0DE85E202E605EE4001020301080715011702F6
:4002C00018011A061C041E0124022503260128072903340735033B084104440545ED46CB470F481F49FF4AFF4BFF4CEA4D554EB04F48501C5201580459045A295B295D99B5
:400300005F0161086308650867086850690A6A406BA86CC06E406FA8840394029901A601A803B003B301B701B802BE01BF44C061C102C6BCC70EC81CC9FFCAFFCBFFCEF0F8
:40034000CF44D00CD608D804D904DA04DB24DD90DF01E6C0EA40EB0200040108042009080E040F021020112013101510170418401E04202227142D102F28311037043F029F
:40038000400547014B104F8551045260562857C0584859125E016082620863086608670569406F017E08862187808C088D12954899089B209C029E40A118A4A0A620A70447
:4003C000AA40AD04AE01B240B310C044C2C4C466CA60CC44CE80D08CD214D68FD87FDE20E040E04087209B20E605EE4039083F0459045F012720E4404101440445CF46DE9D
:4004000047B0482F49FF4AFF4BFF4CEA4D554EB04F48501C52015A285B285D995F0161086308650867086850690A6A406BA86CC06E406FA88240830184FF850288018906FB
:400440008C4F8E90910492B394F3960C9803990F9C42A008A40CA509A706A804A90FAC4CAD0EAEA3AF01B08CB27CB40FB508B707BA2ABF10D602D711D804D904DB04DF0101
:400480000440068007140C010E040F12162A17011C401F16240126102F1637113E29414149055121524059015E20612462406410673069806C106E406F2876287701788049
:4004C0008501860287048840920594219640971898819A809B149C50A301A72AAA80AB20C0F0C2F0C4F0CA70CCA0CEE0D009D621D80EDE08EE080102020103280402050357
:40050000070408040F101004130315011602170819031A011F102402250328042B032E022F033002310C3320340135103604370338023E103F114065410242044401450C52
:40054000460E480549FF4AFF4BFF4C624DA04EF04F41500C54185604580459045A045B045F016640670269106A306B106D106E106F12C004C604C9FFCA07CBFFCC40CD209B
:40058000CEF0CF05D008D608DA04DB04DD90DF01E040E1A8E240E3200421064007100C040E400F08141015501E89252027622C142D402F0631303401364037143E043F82EA
:4005C0004040464047504E014F1850A0574058415A035F02630265116702810182048301904091109204942098809B14A4A0A729A821AC48B011B320C070C270C4E0CA70D3
:40060000CCF0CED0D0B1D230D688D8B8EC40EE20E880ECC0E280EE08122013801404168019081C103082344036013A803B023E403F02400253015840C4F0C630CCF0CEF024
:40064000D0103004322035083780381039043E4082409010980499089B809C40A220A482A601A701A880AA40AC02CCF0CE70E220EE405B01870195049C40A402A601A70118
:40068000B480D640E2401B042004702087018F0495049C40A402A701AA01C610C810DC20E610EE8072208E20DC01E40200401220C002C40818208040822090409420A22081
:4006C000B410C608EE023C403D0840408C40CE05D002E002800295049C40A402B020B404E22085049504AC40E640EE101F8031403A2099409A20B140B220B504C601CC0877
:40070000CE08E801EC0310408840AF80C408E201000101010214080109010A010B011001110112141A011B0100FF01FF020F10AA110A0000000000000000D4008000408059
:400740008000800000000000000C0C0000000000000B0B00000000000400000602000000A9000000010100000000010003001801000100000002000000030000000400006D
:400780000005000000000000000000000000000000000000000000000000000000000000000000000000000000000000000000000000000000000000000000000000000034
:4007C00000000000000000000000000000000000000000000000000000000000000000000000000000000000000000000000000000000000000000000000000000000000F9
:4008000000000000000000000000000000000000000000000000000000000000000000000000000000000000000000000000000000000000000000000000000000000000B8
:400840000000000000000000000000000000000000000000000000000000000000000000000000000000000000000000000000000000000000000000000000000000000078
:400880000000000000000000000000000000000000000000000000000000000000000000000000000000000000000000000000000000000000000000000000000000000038
:0200000490006A
:0400000000004005B7
:0200000490105A
:04000000BC90ACAF55
:0200000490303A
:02000000A65FF9
:0200000490402A
:4000000000000000000000000000000000000000000000000000000000000000000000000000000000000000000000000000000000000000000000000000000000000000C0
:400040000000000000000000000000000000000000000000000000000000000000000000000000000000000000000000000000000000000000000000000000000000000080
:400080000000000000000000000000000000000000000000000000000000000000000000000000000000000000000000000000000000000000000000000000000000000040
:4000C0000000000000000000000000000000000000000000000000000000000000000000000000000000000000000000000000000000000000000000000000000000000000
:0200000490501A
:0C00000000012E16106900012E3EB6C84B
:00000001FF